{
  "_format": "hh-sol-artifact-1",
  "contractName": "GrievanceSystem",
  "sourceName": "contracts/GrievX.sol",
  "abi": [
    {
      "inputs": [],
      "stateMutability": "nonpayable",
      "type": "constructor"
    },
    {
      "anonymous": false,
      "inputs": [
        {
          "indexed": false,
          "internalType": "address",
          "name": "newAdminHead",
          "type": "address"
        }
      ],
      "name": "AdminHeadAssigned",
      "type": "event"
    },
    {
      "anonymous": false,
      "inputs": [
        {
          "indexed": true,
          "internalType": "address",
          "name": "user",
          "type": "address"
        },
        {
          "indexed": false,
          "internalType": "uint256",
          "name": "grievanceId",
          "type": "uint256"
        }
      ],
      "name": "GrievanceFiled",
      "type": "event"
    },
    {
      "anonymous": false,
      "inputs": [
        {
          "indexed": false,
          "internalType": "uint256",
          "name": "grievanceId",
          "type": "uint256"
        },
        {
          "indexed": false,
          "internalType": "string",
          "name": "status",
          "type": "string"
        }
      ],
      "name": "GrievanceStatusChanged",
      "type": "event"
    },
    {
      "anonymous": false,
      "inputs": [
        {
          "indexed": false,
          "internalType": "uint256",
          "name": "projectId",
          "type": "uint256"
        },
        {
          "indexed": false,
          "internalType": "string",
          "name": "pname",
          "type": "string"
        },
        {
          "indexed": false,
          "internalType": "uint256",
          "name": "fundsRequired",
          "type": "uint256"
        }
      ],
      "name": "ProjectCreated",
      "type": "event"
    },
    {
      "anonymous": false,
      "inputs": [
        {
          "indexed": false,
          "internalType": "uint256",
          "name": "projectId",
          "type": "uint256"
        },
        {
          "indexed": false,
          "internalType": "uint256",
          "name": "amount",
          "type": "uint256"
        }
      ],
      "name": "ProjectFunded",
      "type": "event"
    },
    {
      "anonymous": false,
      "inputs": [
        {
          "indexed": false,
          "internalType": "uint256",
          "name": "projectId",
          "type": "uint256"
        },
        {
          "indexed": false,
          "internalType": "string",
          "name": "status",
          "type": "string"
        }
      ],
      "name": "ProjectStatusChanged",
      "type": "event"
    },
    {
      "anonymous": false,
      "inputs": [
        {
          "indexed": true,
          "internalType": "address",
          "name": "user",
          "type": "address"
        },
        {
          "indexed": false,
          "internalType": "uint256",
          "name": "amount",
          "type": "uint256"
        }
      ],
      "name": "TaxPaid",
      "type": "event"
    },
    {
      "anonymous": false,
      "inputs": [
        {
          "indexed": false,
          "internalType": "address",
          "name": "user",
          "type": "address"
        },
        {
          "indexed": false,
          "internalType": "string",
          "name": "name",
          "type": "string"
        }
      ],
      "name": "UserRegistered",
      "type": "event"
    },
    {
      "inputs": [],
      "name": "adminGovt",
      "outputs": [
        {
          "internalType": "address",
          "name": "",
          "type": "address"
        }
      ],
      "stateMutability": "view",
      "type": "function"
    },
    {
      "inputs": [],
      "name": "adminHead",
      "outputs": [
        {
          "internalType": "address",
          "name": "",
          "type": "address"
        }
      ],
      "stateMutability": "view",
      "type": "function"
    },
    {
      "inputs": [
        {
          "internalType": "address",
          "name": "_newAdminHead",
          "type": "address"
        }
      ],
      "name": "assignAdminHead",
      "outputs": [],
      "stateMutability": "nonpayable",
      "type": "function"
    },
    {
      "inputs": [
        {
          "internalType": "uint256",
          "name": "_projectId",
          "type": "uint256"
        }
      ],
      "name": "completeProject",
      "outputs": [],
      "stateMutability": "nonpayable",
      "type": "function"
    },
    {
      "inputs": [
        {
          "internalType": "string",
          "name": "_pname",
          "type": "string"
        },
        {
          "internalType": "string",
          "name": "_details",
          "type": "string"
        },
        {
          "internalType": "uint256",
          "name": "_fundsRequired",
          "type": "uint256"
        },
        {
          "internalType": "address",
          "name": "_projectManager",
          "type": "address"
        },
        {
          "internalType": "uint256[]",
          "name": "_relatedGrievances",
          "type": "uint256[]"
        }
      ],
      "name": "createProject",
      "outputs": [],
      "stateMutability": "nonpayable",
      "type": "function"
    },
    {
      "inputs": [
        {
          "internalType": "string",
          "name": "_details",
          "type": "string"
        }
      ],
      "name": "fileGrievance",
      "outputs": [],
      "stateMutability": "nonpayable",
      "type": "function"
    },
    {
      "inputs": [],
      "name": "fixedTaxAmount",
      "outputs": [
        {
          "internalType": "uint256",
          "name": "",
          "type": "uint256"
        }
      ],
      "stateMutability": "view",
      "type": "function"
    },
    {
      "inputs": [
        {
          "internalType": "uint256",
          "name": "_projectId",
          "type": "uint256"
        },
        {
          "internalType": "uint256",
          "name": "_amount",
          "type": "uint256"
        }
      ],
      "name": "fundProject",
      "outputs": [],
      "stateMutability": "nonpayable",
      "type": "function"
    },
    {
      "inputs": [],
      "name": "getContractBalance",
      "outputs": [
        {
          "internalType": "uint256",
          "name": "",
          "type": "uint256"
        }
      ],
      "stateMutability": "view",
      "type": "function"
    },
    {
      "inputs": [
        {
          "internalType": "uint256",
          "name": "",
          "type": "uint256"
        }
      ],
      "name": "grievances",
      "outputs": [
        {
          "internalType": "string",
          "name": "name",
          "type": "string"
        },
        {
          "internalType": "string",
          "name": "details",
          "type": "string"
        },
        {
          "internalType": "string",
          "name": "status",
          "type": "string"
        },
        {
          "internalType": "address",
          "name": "user",
          "type": "address"
        },
        {
          "internalType": "uint256",
          "name": "timestamp",
          "type": "uint256"
        }
      ],
      "stateMutability": "view",
      "type": "function"
    },
    {
      "inputs": [],
      "name": "payTax",
      "outputs": [],
      "stateMutability": "payable",
      "type": "function"
    },
    {
      "inputs": [
        {
          "internalType": "uint256",
          "name": "",
          "type": "uint256"
        }
      ],
      "name": "projects",
      "outputs": [
        {
          "internalType": "string",
          "name": "pname",
          "type": "string"
        },
        {
          "internalType": "string",
          "name": "details",
          "type": "string"
        },
        {
          "internalType": "uint256",
          "name": "fundsRequired",
          "type": "uint256"
        },
        {
          "internalType": "uint256",
          "name": "fundsAllocated",
          "type": "uint256"
        },
        {
          "internalType": "string",
          "name": "status",
          "type": "string"
        },
        {
          "internalType": "address",
          "name": "adminHead",
          "type": "address"
        },
        {
          "internalType": "address",
          "name": "projectManager",
          "type": "address"
        }
      ],
      "stateMutability": "view",
      "type": "function"
    },
    {
      "inputs": [
        {
          "internalType": "string",
          "name": "_name",
          "type": "string"
        },
        {
          "internalType": "string",
          "name": "_email",
          "type": "string"
        },
        {
          "internalType": "string",
          "name": "_dob",
          "type": "string"
        }
      ],
      "name": "registerUser",
      "outputs": [],
      "stateMutability": "nonpayable",
      "type": "function"
    },
    {
      "inputs": [
        {
          "internalType": "uint256",
          "name": "",
          "type": "uint256"
        }
      ],
      "name": "registeredUsers",
      "outputs": [
        {
          "internalType": "address",
          "name": "",
          "type": "address"
        }
      ],
      "stateMutability": "view",
      "type": "function"
    },
    {
      "inputs": [
        {
          "internalType": "uint256",
          "name": "_newAmount",
          "type": "uint256"
        }
      ],
      "name": "setTaxAmount",
      "outputs": [],
      "stateMutability": "nonpayable",
      "type": "function"
    },
    {
      "inputs": [
        {
          "internalType": "uint256",
          "name": "_grievanceId",
          "type": "uint256"
        },
        {
          "internalType": "string",
          "name": "_status",
          "type": "string"
        }
      ],
      "name": "updateGrievanceStatus",
      "outputs": [],
      "stateMutability": "nonpayable",
      "type": "function"
    },
    {
      "inputs": [
        {
          "internalType": "address",
          "name": "",
          "type": "address"
        }
      ],
      "name": "users",
      "outputs": [
        {
          "internalType": "string",
          "name": "name",
          "type": "string"
        },
        {
          "internalType": "string",
          "name": "email",
          "type": "string"
        },
        {
          "internalType": "string",
          "name": "dob",
          "type": "string"
        },
        {
          "internalType": "bool",
          "name": "isRegistered",
          "type": "bool"
        },
        {
          "internalType": "uint256",
          "name": "taxPaid",
          "type": "uint256"
        },
        {
          "internalType": "bool",
          "name": "taxPaidStatus",
          "type": "bool"
        }
      ],
      "stateMutability": "view",
      "type": "function"
    },
    {
      "inputs": [],
      "name": "viewAllGrievances",
      "outputs": [
        {
          "components": [
            {
              "internalType": "string",
              "name": "name",
              "type": "string"
            },
            {
              "internalType": "string",
              "name": "details",
              "type": "string"
            },
            {
              "internalType": "string",
              "name": "status",
              "type": "string"
            },
            {
              "internalType": "address",
              "name": "user",
              "type": "address"
            },
            {
              "internalType": "uint256",
              "name": "timestamp",
              "type": "uint256"
            }
          ],
          "internalType": "struct GrievanceSystem.Grievance[]",
          "name": "",
          "type": "tuple[]"
        }
      ],
      "stateMutability": "view",
      "type": "function"
    },
    {
      "inputs": [],
      "name": "viewAllUsers",
      "outputs": [
        {
          "components": [
            {
              "internalType": "string",
              "name": "name",
              "type": "string"
            },
            {
              "internalType": "string",
              "name": "email",
              "type": "string"
            },
            {
              "internalType": "string",
              "name": "dob",
              "type": "string"
            },
            {
              "internalType": "bool",
              "name": "isRegistered",
              "type": "bool"
            },
            {
              "internalType": "uint256",
              "name": "taxPaid",
              "type": "uint256"
            },
            {
              "internalType": "bool",
              "name": "taxPaidStatus",
              "type": "bool"
            }
          ],
          "internalType": "struct GrievanceSystem.User[]",
          "name": "",
          "type": "tuple[]"
        }
      ],
      "stateMutability": "view",
      "type": "function"
    },
    {
      "inputs": [],
      "name": "viewMyGrievances",
      "outputs": [
        {
          "components": [
            {
              "internalType": "string",
              "name": "name",
              "type": "string"
            },
            {
              "internalType": "string",
              "name": "details",
              "type": "string"
            },
            {
              "internalType": "string",
              "name": "status",
              "type": "string"
            },
            {
              "internalType": "address",
              "name": "user",
              "type": "address"
            },
            {
              "internalType": "uint256",
              "name": "timestamp",
              "type": "uint256"
            }
          ],
          "internalType": "struct GrievanceSystem.Grievance[]",
          "name": "",
          "type": "tuple[]"
        }
      ],
      "stateMutability": "view",
      "type": "function"
    },
    {
      "inputs": [],
      "name": "viewTaxPayments",
      "outputs": [
        {
          "internalType": "address[]",
          "name": "",
          "type": "address[]"
        },
        {
          "internalType": "uint256[]",
          "name": "",
          "type": "uint256[]"
        },
        {
          "internalType": "bool[]",
          "name": "",
          "type": "bool[]"
        }
      ],
      "stateMutability": "view",
      "type": "function"
    },
    {
      "inputs": [
        {
          "internalType": "uint256",
          "name": "_amount",
          "type": "uint256"
        }
      ],
      "name": "withdrawFunds",
      "outputs": [],
      "stateMutability": "nonpayable",
      "type": "function"
    }
  ],
  "bytecode": "0x6080604052348015600f57600080fd5b50336000806101000a81548173ffffffffffffffffffffffffffffffffffffffff021916908373ffffffffffffffffffffffffffffffffffffffff1602179055506156af8061005f6000396000f3fe6080604052600436106101355760003560e01c80636f9fb98a116100ab578063c3d9c9d71161006f578063c3d9c9d714610418578063d637dcfa14610441578063d77697c71461046a578063ec046fc714610493578063f59ec220146104be578063fb277564146104e757610135565b80636f9fb98a146103185780637259e0f81461034357806383f4af9214610380578063a87430ba146103ab578063a9e4b9a5146103ed57610135565b806316f41e56116100fd57806316f41e56146102255780632245f1521461024e5780632912ba5f14610277578063356f1d75146102815780635c920838146102c25780635cbe97d7146102ed57610135565b806301cda5a41461013a578063107046bd14610163578063109d01ce146101a65780631131e69c146101d3578063155dd5ee146101fc575b600080fd5b34801561014657600080fd5b50610161600480360381019061015c9190613547565b610512565b005b34801561016f57600080fd5b5061018a60048036038101906101859190613587565b610935565b60405161019d9796959493929190613694565b60405180910390f35b3480156101b257600080fd5b506101bb610b5f565b6040516101ca9392919061395e565b60405180910390f35b3480156101df57600080fd5b506101fa60048036038101906101f59190613adf565b610f4e565b005b34801561020857600080fd5b50610223600480360381019061021e9190613587565b61127f565b005b34801561023157600080fd5b5061024c60048036038101906102479190613b28565b611421565b005b34801561025a57600080fd5b5061027560048036038101906102709190613587565b611648565b005b61027f611871565b005b34801561028d57600080fd5b506102a860048036038101906102a39190613587565b611ad8565b6040516102b9959493929190613b84565b60405180910390f35b3480156102ce57600080fd5b506102d7611cd6565b6040516102e49190613bec565b60405180910390f35b3480156102f957600080fd5b50610302611cfc565b60405161030f9190613d97565b60405180910390f35b34801561032457600080fd5b5061032d61219b565b60405161033a9190613db9565b60405180910390f35b34801561034f57600080fd5b5061036a60048036038101906103659190613587565b612232565b6040516103779190613bec565b60405180910390f35b34801561038c57600080fd5b50610395612271565b6040516103a29190613d97565b60405180910390f35b3480156103b757600080fd5b506103d260048036038101906103cd9190613e00565b6125cc565b6040516103e496959493929190613e3c565b60405180910390f35b3480156103f957600080fd5b506104026127ba565b60405161040f9190613db9565b60405180910390f35b34801561042457600080fd5b5061043f600480360381019061043a9190613587565b6127c0565b005b34801561044d57600080fd5b5061046860048036038101906104639190613eb2565b61289b565b005b34801561047657600080fd5b50610491600480360381019061048c9190614021565b612b12565b005b34801561049f57600080fd5b506104a8612e72565b6040516104b59190614249565b60405180910390f35b3480156104ca57600080fd5b506104e560048036038101906104e09190613e00565b613278565b005b3480156104f357600080fd5b506104fc6133f0565b6040516105099190613bec565b60405180910390f35b60008054906101000a900473ffffffffffffffffffffffffffffffffffffffff1673ffffffffffffffffffffffffffffffffffffffff163373ffffffffffffffffffffffffffffffffffffffff16146105a0576040517f08c379a0000000000000000000000000000000000000000000000000000000008152600401610597906142dd565b60405180910390fd5b60068054905082106105e7576040517f08c379a00000000000000000000000000000000000000000000000000000000081526004016105de90614349565b60405180910390fd5b6000600683815481106105fd576105fc614369565b5b9060005260206000209060080201905060405160200161061c906143ef565b604051602081830303815290604052805190602001208160040160405160200161064691906144fc565b604051602081830303815290604052805190602001201461069c576040517f08c379a000000000000000000000000000000000000000000000000000000000815260040161069390614585565b60405180910390fd5b600082116106df576040517f08c379a00000000000000000000000000000000000000000000000000000000081526004016106d6906145f1565b60405180910390fd5b806003015481600201546106f39190614640565b821115610735576040517f08c379a000000000000000000000000000000000000000000000000000000000815260040161072c906146c0565b60405180910390fd5b81471015610778576040517f08c379a000000000000000000000000000000000000000000000000000000000815260040161076f9061472c565b60405180910390fd5b8181600301600082825461078c919061474c565b9250508190555080600201548160030154106107ea576040518060400160405280600781526020017f4f4e474f494e47000000000000000000000000000000000000000000000000008152508160040190816107e89190614917565b505b60008160060160009054906101000a900473ffffffffffffffffffffffffffffffffffffffff1673ffffffffffffffffffffffffffffffffffffffff168360405161083490614a1a565b60006040518083038185875af1925050503d8060008114610871576040519150601f19603f3d011682016040523d82523d6000602084013e610876565b606091505b50509050806108ba576040517f08c379a00000000000000000000000000000000000000000000000000000000081526004016108b190614aa1565b60405180910390fd5b7f26130d0cd3f6aa101d05e4a4f2ff016fd5b934363d17bdd03ff5dc03ec5934a984846040516108eb929190614ac1565b60405180910390a17f2f2a85d37a596b89f75c8402b3e5d32785d744a76d938d42465dfe3fbb9494b18483600401604051610927929190614b6e565b60405180910390a150505050565b6006818154811061094557600080fd5b906000526020600020906008020160009150905080600001805461096890614433565b80601f016020809104026020016040519081016040528092919081815260200182805461099490614433565b80156109e15780601f106109b6576101008083540402835291602001916109e1565b820191906000526020600020905b8154815290600101906020018083116109c457829003601f168201915b5050505050908060010180546109f690614433565b80601f0160208091040260200160405190810160405280929190818152602001828054610a2290614433565b8015610a6f5780601f10610a4457610100808354040283529160200191610a6f565b820191906000526020600020905b815481529060010190602001808311610a5257829003601f168201915b505050505090806002015490806003015490806004018054610a9090614433565b80601f0160208091040260200160405190810160405280929190818152602001828054610abc90614433565b8015610b095780601f10610ade57610100808354040283529160200191610b09565b820191906000526020600020905b815481529060010190602001808311610aec57829003601f168201915b5050505050908060050160009054906101000a900473ffffffffffffffffffffffffffffffffffffffff16908060060160009054906101000a900473ffffffffffffffffffffffffffffffffffffffff16905087565b606080606060008054906101000a900473ffffffffffffffffffffffffffffffffffffffff1673ffffffffffffffffffffffffffffffffffffffff163373ffffffffffffffffffffffffffffffffffffffff161480610c0b5750600160009054906101000a900473ffffffffffffffffffffffffffffffffffffffff1673ffffffffffffffffffffffffffffffffffffffff163373ffffffffffffffffffffffffffffffffffffffff16145b610c4a576040517f08c379a0000000000000000000000000000000000000000000000000000000008152600401610c4190614c10565b60405180910390fd5b600060038054905067ffffffffffffffff811115610c6b57610c6a6139b4565b5b604051908082528060200260200182016040528015610c995781602001602082028036833780820191505090505b509050600060038054905067ffffffffffffffff811115610cbd57610cbc6139b4565b5b604051908082528060200260200182016040528015610ceb5781602001602082028036833780820191505090505b509050600060038054905067ffffffffffffffff811115610d0f57610d0e6139b4565b5b604051908082528060200260200182016040528015610d3d5781602001602082028036833780820191505090505b50905060005b600380549050811015610f3c5760038181548110610d6457610d63614369565b5b9060005260206000200160009054906101000a900473ffffffffffffffffffffffffffffffffffffffff16848281518110610da257610da1614369565b5b602002602001019073ffffffffffffffffffffffffffffffffffffffff16908173ffffffffffffffffffffffffffffffffffffffff16815250506002600060038381548110610df457610df3614369565b5b9060005260206000200160009054906101000a900473ffffffffffffffffffffffffffffffffffffffff1673ffffffffffffffffffffffffffffffffffffffff1673ffffffffffffffffffffffffffffffffffffffff16815260200190815260200160002060040154838281518110610e7057610e6f614369565b5b6020026020010181815250506002600060038381548110610e9457610e93614369565b5b9060005260206000200160009054906101000a900473ffffffffffffffffffffffffffffffffffffffff1673ffffffffffffffffffffffffffffffffffffffff1673ffffffffffffffffffffffffffffffffffffffff16815260200190815260200160002060050160009054906101000a900460ff16828281518110610f1d57610f1c614369565b5b6020026020010190151590811515815250508080600101915050610d43565b50828282955095509550505050909192565b600260003373ffffffffffffffffffffffffffffffffffffffff1673ffffffffffffffffffffffffffffffffffffffff16815260200190815260200160002060030160009054906101000a900460ff16610fdd576040517f08c379a0000000000000000000000000000000000000000000000000000000008152600401610fd490614ca2565b60405180910390fd5b6000815111611021576040517f08c379a000000000000000000000000000000000000000000000000000000000815260040161101890614d0e565b60405180910390fd5b60056040518060a00160405280600260003373ffffffffffffffffffffffffffffffffffffffff1673ffffffffffffffffffffffffffffffffffffffff168152602001908152602001600020600001805461107b90614433565b80601f01602080910402602001604051908101604052809291908181526020018280546110a790614433565b80156110f45780601f106110c9576101008083540402835291602001916110f4565b820191906000526020600020905b8154815290600101906020018083116110d757829003601f168201915b505050505081526020018381526020016040518060400160405280600781526020017f50454e44494e470000000000000000000000000000000000000000000000000081525081526020013373ffffffffffffffffffffffffffffffffffffffff168152602001428152509080600181540180825580915050600190039060005260206000209060050201600090919091909150600082015181600001908161119d9190614917565b5060208201518160010190816111b39190614917565b5060408201518160020190816111c99190614917565b5060608201518160030160006101000a81548173ffffffffffffffffffffffffffffffffffffffff021916908373ffffffffffffffffffffffffffffffffffffffff1602179055506080820151816004015550503373ffffffffffffffffffffffffffffffffffffffff167f07429e4fd7a7d9d45548b0c54a6fe586af0f419e591b4c18caa749f977a56c0160016005805490506112679190614640565b6040516112749190613db9565b60405180910390a250565b60008054906101000a900473ffffffffffffffffffffffffffffffffffffffff1673ffffffffffffffffffffffffffffffffffffffff163373ffffffffffffffffffffffffffffffffffffffff161461130d576040517f08c379a0000000000000000000000000000000000000000000000000000000008152600401611304906142dd565b60405180910390fd5b47811115611350576040517f08c379a000000000000000000000000000000000000000000000000000000000815260040161134790614d7a565b60405180910390fd5b60008060009054906101000a900473ffffffffffffffffffffffffffffffffffffffff1673ffffffffffffffffffffffffffffffffffffffff168260405161139790614a1a565b60006040518083038185875af1925050503d80600081146113d4576040519150601f19603f3d011682016040523d82523d6000602084013e6113d9565b606091505b505090508061141d576040517f08c379a000000000000000000000000000000000000000000000000000000000815260040161141490614de6565b60405180910390fd5b5050565b600160009054906101000a900473ffffffffffffffffffffffffffffffffffffffff1673ffffffffffffffffffffffffffffffffffffffff163373ffffffffffffffffffffffffffffffffffffffff16146114b1576040517f08c379a00000000000000000000000000000000000000000000000000000000081526004016114a890614e78565b60405180910390fd5b60058054905082106114f8576040517f08c379a00000000000000000000000000000000000000000000000000000000081526004016114ef90614ee4565b60405180910390fd5b60405160200161150790614f50565b604051602081830303815290604052805190602001208160405160200161152e9190614f96565b604051602081830303815290604052805190602001201480611599575060405160200161155a90614ff9565b60405160208183030381529060405280519060200120816040516020016115819190614f96565b60405160208183030381529060405280519060200120145b6115d8576040517f08c379a00000000000000000000000000000000000000000000000000000000081526004016115cf9061505a565b60405180910390fd5b80600583815481106115ed576115ec614369565b5b9060005260206000209060050201600201908161160a9190614917565b507f56b64dd8a54db7b8e59f1c0b280f8f6d934bbcb8b1d07b47684275070a76d1e6828260405161163c92919061507a565b60405180910390a15050565b600160009054906101000a900473ffffffffffffffffffffffffffffffffffffffff1673ffffffffffffffffffffffffffffffffffffffff163373ffffffffffffffffffffffffffffffffffffffff16146116d8576040517f08c379a00000000000000000000000000000000000000000000000000000000081526004016116cf90614e78565b60405180910390fd5b600680549050811061171f576040517f08c379a000000000000000000000000000000000000000000000000000000000815260040161171690614349565b60405180910390fd5b60405160200161172e906150f6565b604051602081830303815290604052805190602001206006828154811061175857611757614369565b5b906000526020600020906008020160040160405160200161177991906144fc565b60405160208183030381529060405280519060200120146117cf576040517f08c379a00000000000000000000000000000000000000000000000000000000081526004016117c69061517d565b60405180910390fd5b6040518060400160405280600981526020017f434f4d504c4554454400000000000000000000000000000000000000000000008152506006828154811061181957611818614369565b5b906000526020600020906008020160040190816118369190614917565b507f2f2a85d37a596b89f75c8402b3e5d32785d744a76d938d42465dfe3fbb9494b18160405161186691906151e9565b60405180910390a150565b600260003373ffffffffffffffffffffffffffffffffffffffff1673ffffffffffffffffffffffffffffffffffffffff16815260200190815260200160002060030160009054906101000a900460ff16611900576040517f08c379a00000000000000000000000000000000000000000000000000000000081526004016118f790614ca2565b60405180910390fd5b6004543414611944576040517f08c379a000000000000000000000000000000000000000000000000000000000815260040161193b90615263565b60405180910390fd5b600260003373ffffffffffffffffffffffffffffffffffffffff1673ffffffffffffffffffffffffffffffffffffffff16815260200190815260200160002060050160009054906101000a900460ff16156119d4576040517f08c379a00000000000000000000000000000000000000000000000000000000081526004016119cb906152f5565b60405180910390fd5b34600260003373ffffffffffffffffffffffffffffffffffffffff1673ffffffffffffffffffffffffffffffffffffffff1681526020019081526020016000206004016000828254611a26919061474c565b925050819055506001600260003373ffffffffffffffffffffffffffffffffffffffff1673ffffffffffffffffffffffffffffffffffffffff16815260200190815260200160002060050160006101000a81548160ff0219169083151502179055503373ffffffffffffffffffffffffffffffffffffffff167f27fc3eb39a19331c30d955706825686fd200a5e5056d33f23caecccca75d218434604051611ace9190613db9565b60405180910390a2565b60058181548110611ae857600080fd5b9060005260206000209060050201600091509050806000018054611b0b90614433565b80601f0160208091040260200160405190810160405280929190818152602001828054611b3790614433565b8015611b845780601f10611b5957610100808354040283529160200191611b84565b820191906000526020600020905b815481529060010190602001808311611b6757829003601f168201915b505050505090806001018054611b9990614433565b80601f0160208091040260200160405190810160405280929190818152602001828054611bc590614433565b8015611c125780601f10611be757610100808354040283529160200191611c12565b820191906000526020600020905b815481529060010190602001808311611bf557829003601f168201915b505050505090806002018054611c2790614433565b80601f0160208091040260200160405190810160405280929190818152602001828054611c5390614433565b8015611ca05780601f10611c7557610100808354040283529160200191611ca0565b820191906000526020600020905b815481529060010190602001808311611c8357829003601f168201915b5050505050908060030160009054906101000a900473ffffffffffffffffffffffffffffffffffffffff16908060040154905085565b600160009054906101000a900473ffffffffffffffffffffffffffffffffffffffff1681565b6060600260003373ffffffffffffffffffffffffffffffffffffffff1673ffffffffffffffffffffffffffffffffffffffff16815260200190815260200160002060030160009054906101000a900460ff16611d8d576040517f08c379a0000000000000000000000000000000000000000000000000000000008152600401611d8490614ca2565b60405180910390fd5b6000805b600580549050811015611e32573373ffffffffffffffffffffffffffffffffffffffff1660058281548110611dc957611dc8614369565b5b906000526020600020906005020160030160009054906101000a900473ffffffffffffffffffffffffffffffffffffffff1673ffffffffffffffffffffffffffffffffffffffff1603611e25578180611e2190615315565b9250505b8080600101915050611d91565b5060008167ffffffffffffffff811115611e4f57611e4e6139b4565b5b604051908082528060200260200182016040528015611e8857816020015b611e75613414565b815260200190600190039081611e6d5790505b5090506000805b600580549050811015612191573373ffffffffffffffffffffffffffffffffffffffff1660058281548110611ec757611ec6614369565b5b906000526020600020906005020160030160009054906101000a900473ffffffffffffffffffffffffffffffffffffffff1673ffffffffffffffffffffffffffffffffffffffff16036121845760058181548110611f2857611f27614369565b5b90600052602060002090600502016040518060a0016040529081600082018054611f5190614433565b80601f0160208091040260200160405190810160405280929190818152602001828054611f7d90614433565b8015611fca5780601f10611f9f57610100808354040283529160200191611fca565b820191906000526020600020905b815481529060010190602001808311611fad57829003601f168201915b50505050508152602001600182018054611fe390614433565b80601f016020809104026020016040519081016040528092919081815260200182805461200f90614433565b801561205c5780601f106120315761010080835404028352916020019161205c565b820191906000526020600020905b81548152906001019060200180831161203f57829003601f168201915b5050505050815260200160028201805461207590614433565b80601f01602080910402602001604051908101604052809291908181526020018280546120a190614433565b80156120ee5780601f106120c3576101008083540402835291602001916120ee565b820191906000526020600020905b8154815290600101906020018083116120d157829003601f168201915b505050505081526020016003820160009054906101000a900473ffffffffffffffffffffffffffffffffffffffff1673ffffffffffffffffffffffffffffffffffffffff1673ffffffffffffffffffffffffffffffffffffffff16815260200160048201548152505083838151811061216a57612169614369565b5b6020026020010181905250818061218090615315565b9250505b8080600101915050611e8f565b5081935050505090565b60008060009054906101000a900473ffffffffffffffffffffffffffffffffffffffff1673ffffffffffffffffffffffffffffffffffffffff163373ffffffffffffffffffffffffffffffffffffffff161461222c576040517f08c379a0000000000000000000000000000000000000000000000000000000008152600401612223906142dd565b60405180910390fd5b47905090565b6003818154811061224257600080fd5b906000526020600020016000915054906101000a900473ffffffffffffffffffffffffffffffffffffffff1681565b606060008054906101000a900473ffffffffffffffffffffffffffffffffffffffff1673ffffffffffffffffffffffffffffffffffffffff163373ffffffffffffffffffffffffffffffffffffffff16148061231a5750600160009054906101000a900473ffffffffffffffffffffffffffffffffffffffff1673ffffffffffffffffffffffffffffffffffffffff163373ffffffffffffffffffffffffffffffffffffffff16145b612359576040517f08c379a000000000000000000000000000000000000000000000000000000000815260040161235090614c10565b60405180910390fd5b6005805480602002602001604051908101604052809291908181526020016000905b828210156125c357838290600052602060002090600502016040518060a00160405290816000820180546123ae90614433565b80601f01602080910402602001604051908101604052809291908181526020018280546123da90614433565b80156124275780601f106123fc57610100808354040283529160200191612427565b820191906000526020600020905b81548152906001019060200180831161240a57829003601f168201915b5050505050815260200160018201805461244090614433565b80601f016020809104026020016040519081016040528092919081815260200182805461246c90614433565b80156124b95780601f1061248e576101008083540402835291602001916124b9565b820191906000526020600020905b81548152906001019060200180831161249c57829003601f168201915b505050505081526020016002820180546124d290614433565b80601f01602080910402602001604051908101604052809291908181526020018280546124fe90614433565b801561254b5780601f106125205761010080835404028352916020019161254b565b820191906000526020600020905b81548152906001019060200180831161252e57829003601f168201915b505050505081526020016003820160009054906101000a900473ffffffffffffffffffffffffffffffffffffffff1673ffffffffffffffffffffffffffffffffffffffff1673ffffffffffffffffffffffffffffffffffffffff1681526020016004820154815250508152602001906001019061237b565b50505050905090565b60026020528060005260406000206000915090508060000180546125ef90614433565b80601f016020809104026020016040519081016040528092919081815260200182805461261b90614433565b80156126685780601f1061263d57610100808354040283529160200191612668565b820191906000526020600020905b81548152906001019060200180831161264b57829003601f168201915b50505050509080600101805461267d90614433565b80601f01602080910402602001604051908101604052809291908181526020018280546126a990614433565b80156126f65780601f106126cb576101008083540402835291602001916126f6565b820191906000526020600020905b8154815290600101906020018083116126d957829003601f168201915b50505050509080600201805461270b90614433565b80601f016020809104026020016040519081016040528092919081815260200182805461273790614433565b80156127845780601f1061275957610100808354040283529160200191612784565b820191906000526020600020905b81548152906001019060200180831161276757829003601f168201915b5050505050908060030160009054906101000a900460ff16908060040154908060050160009054906101000a900460ff16905086565b60045481565b60008054906101000a900473ffffffffffffffffffffffffffffffffffffffff1673ffffffffffffffffffffffffffffffffffffffff163373ffffffffffffffffffffffffffffffffffffffff161461284e576040517f08c379a0000000000000000000000000000000000000000000000000000000008152600401612845906142dd565b60405180910390fd5b60008111612891576040517f08c379a0000000000000000000000000000000000000000000000000000000008152600401612888906153cf565b60405180910390fd5b8060048190555050565b600260003373ffffffffffffffffffffffffffffffffffffffff1673ffffffffffffffffffffffffffffffffffffffff16815260200190815260200160002060030160009054906101000a900460ff161561292b576040517f08c379a00000000000000000000000000000000000000000000000000000000081526004016129229061543b565b60405180910390fd5b600083511161296f576040517f08c379a0000000000000000000000000000000000000000000000000000000008152600401612966906154a7565b60405180910390fd5b6040518060c001604052808481526020018381526020018281526020016001151581526020016000815260200160001515815250600260003373ffffffffffffffffffffffffffffffffffffffff1673ffffffffffffffffffffffffffffffffffffffff16815260200190815260200160002060008201518160000190816129f79190614917565b506020820151816001019081612a0d9190614917565b506040820151816002019081612a239190614917565b5060608201518160030160006101000a81548160ff0219169083151502179055506080820151816004015560a08201518160050160006101000a81548160ff0219169083151502179055509050506003339080600181540180825580915050600190039060005260206000200160009091909190916101000a81548173ffffffffffffffffffffffffffffffffffffffff021916908373ffffffffffffffffffffffffffffffffffffffff1602179055507f48cac28ad4dc618e15f4c2dd5e97751182f166de97b25618318b2112aa951a2f3384604051612b059291906154c7565b60405180910390a1505050565b600160009054906101000a900473ffffffffffffffffffffffffffffffffffffffff1673ffffffffffffffffffffffffffffffffffffffff163373ffffffffffffffffffffffffffffffffffffffff1614612ba2576040517f08c379a0000000000000000000000000000000000000000000000000000000008152600401612b9990614e78565b60405180910390fd5b6000855111612be6576040517f08c379a0000000000000000000000000000000000000000000000000000000008152600401612bdd90615543565b60405180910390fd5b600073ffffffffffffffffffffffffffffffffffffffff168273ffffffffffffffffffffffffffffffffffffffff1603612c55576040517f08c379a0000000000000000000000000000000000000000000000000000000008152600401612c4c906155af565b60405180910390fd5b6006604051806101000160405280878152602001868152602001858152602001600081526020016040518060400160405280600881526020017f504c414e4e494e4700000000000000000000000000000000000000000000000081525081526020013373ffffffffffffffffffffffffffffffffffffffff1681526020018473ffffffffffffffffffffffffffffffffffffffff1681526020018381525090806001815401808255809150506001900390600052602060002090600802016000909190919091506000820151816000019081612d319190614917565b506020820151816001019081612d479190614917565b5060408201518160020155606082015181600301556080820151816004019081612d719190614917565b5060a08201518160050160006101000a81548173ffffffffffffffffffffffffffffffffffffffff021916908373ffffffffffffffffffffffffffffffffffffffff16021790555060c08201518160060160006101000a81548173ffffffffffffffffffffffffffffffffffffffff021916908373ffffffffffffffffffffffffffffffffffffffff16021790555060e0820151816007019080519060200190612e1c929190613459565b5050507f6245d01eb0db8df9242165c3ee1e2324367f93303d7b8f6a86e38a8767e643ae6001600680549050612e529190614640565b8685604051612e63939291906155cf565b60405180910390a15050505050565b606060008054906101000a900473ffffffffffffffffffffffffffffffffffffffff1673ffffffffffffffffffffffffffffffffffffffff163373ffffffffffffffffffffffffffffffffffffffff161480612f1b5750600160009054906101000a900473ffffffffffffffffffffffffffffffffffffffff1673ffffffffffffffffffffffffffffffffffffffff163373ffffffffffffffffffffffffffffffffffffffff16145b612f5a576040517f08c379a0000000000000000000000000000000000000000000000000000000008152600401612f5190614c10565b60405180910390fd5b600060038054905067ffffffffffffffff811115612f7b57612f7a6139b4565b5b604051908082528060200260200182016040528015612fb457816020015b612fa16134a6565b815260200190600190039081612f995790505b50905060005b600380549050811015613270576002600060038381548110612fdf57612fde614369565b5b9060005260206000200160009054906101000a900473ffffffffffffffffffffffffffffffffffffffff1673ffffffffffffffffffffffffffffffffffffffff1673ffffffffffffffffffffffffffffffffffffffff1681526020019081526020016000206040518060c001604052908160008201805461305f90614433565b80601f016020809104026020016040519081016040528092919081815260200182805461308b90614433565b80156130d85780601f106130ad576101008083540402835291602001916130d8565b820191906000526020600020905b8154815290600101906020018083116130bb57829003601f168201915b505050505081526020016001820180546130f190614433565b80601f016020809104026020016040519081016040528092919081815260200182805461311d90614433565b801561316a5780601f1061313f5761010080835404028352916020019161316a565b820191906000526020600020905b81548152906001019060200180831161314d57829003601f168201915b5050505050815260200160028201805461318390614433565b80601f01602080910402602001604051908101604052809291908181526020018280546131af90614433565b80156131fc5780601f106131d1576101008083540402835291602001916131fc565b820191906000526020600020905b8154815290600101906020018083116131df57829003601f168201915b505050505081526020016003820160009054906101000a900460ff16151515158152602001600482015481526020016005820160009054906101000a900460ff16151515158152505082828151811061325857613257614369565b5b60200260200101819052508080600101915050612fba565b508091505090565b60008054906101000a900473ffffffffffffffffffffffffffffffffffffffff1673ffffffffffffffffffffffffffffffffffffffff163373ffffffffffffffffffffffffffffffffffffffff1614613306576040517f08c379a00000000000000000000000000000000000000000000000000000000081526004016132fd906142dd565b60405180910390fd5b600073ffffffffffffffffffffffffffffffffffffffff168173ffffffffffffffffffffffffffffffffffffffff1603613375576040517f08c379a000000000000000000000000000000000000000000000000000000000815260040161336c90615659565b60405180910390fd5b80600160006101000a81548173ffffffffffffffffffffffffffffffffffffffff021916908373ffffffffffffffffffffffffffffffffffffffff1602179055507ff10e41ffa63a438956ff730ba445b415da03de023f40ca5c75c374a69f19e35e816040516133e59190613bec565b60405180910390a150565b60008054906101000a900473ffffffffffffffffffffffffffffffffffffffff1681565b6040518060a00160405280606081526020016060815260200160608152602001600073ffffffffffffffffffffffffffffffffffffffff168152602001600081525090565b828054828255906000526020600020908101928215613495579160200282015b82811115613494578251825591602001919060010190613479565b5b5090506134a291906134e0565b5090565b6040518060c00160405280606081526020016060815260200160608152602001600015158152602001600081526020016000151581525090565b5b808211156134f95760008160009055506001016134e1565b5090565b6000604051905090565b600080fd5b600080fd5b6000819050919050565b61352481613511565b811461352f57600080fd5b50565b6000813590506135418161351b565b92915050565b6000806040838503121561355e5761355d613507565b5b600061356c85828601613532565b925050602061357d85828601613532565b9150509250929050565b60006020828403121561359d5761359c613507565b5b60006135ab84828501613532565b91505092915050565b600081519050919050565b600082825260208201905092915050565b60005b838110156135ee5780820151818401526020810190506135d3565b60008484015250505050565b6000601f19601f8301169050919050565b6000613616826135b4565b61362081856135bf565b93506136308185602086016135d0565b613639816135fa565b840191505092915050565b61364d81613511565b82525050565b600073ffffffffffffffffffffffffffffffffffffffff82169050919050565b600061367e82613653565b9050919050565b61368e81613673565b82525050565b600060e08201905081810360008301526136ae818a61360b565b905081810360208301526136c2818961360b565b90506136d16040830188613644565b6136de6060830187613644565b81810360808301526136f0818661360b565b90506136ff60a0830185613685565b61370c60c0830184613685565b98975050505050505050565b600081519050919050565b600082825260208201905092915050565b6000819050602082019050919050565b61374d81613673565b82525050565b600061375f8383613744565b60208301905092915050565b6000602082019050919050565b600061378382613718565b61378d8185613723565b935061379883613734565b8060005b838110156137c95781516137b08882613753565b97506137bb8361376b565b92505060018101905061379c565b5085935050505092915050565b600081519050919050565b600082825260208201905092915050565b6000819050602082019050919050565b61380b81613511565b82525050565b600061381d8383613802565b60208301905092915050565b6000602082019050919050565b6000613841826137d6565b61384b81856137e1565b9350613856836137f2565b8060005b8381101561388757815161386e8882613811565b975061387983613829565b92505060018101905061385a565b5085935050505092915050565b600081519050919050565b600082825260208201905092915050565b6000819050602082019050919050565b60008115159050919050565b6138d5816138c0565b82525050565b60006138e783836138cc565b60208301905092915050565b6000602082019050919050565b600061390b82613894565b613915818561389f565b9350613920836138b0565b8060005b8381101561395157815161393888826138db565b9750613943836138f3565b925050600181019050613924565b5085935050505092915050565b600060608201905081810360008301526139788186613778565b9050818103602083015261398c8185613836565b905081810360408301526139a08184613900565b9050949350505050565b600080fd5b600080fd5b7f4e487b7100000000000000000000000000000000000000000000000000000000600052604160045260246000fd5b6139ec826135fa565b810181811067ffffffffffffffff82111715613a0b57613a0a6139b4565b5b80604052505050565b6000613a1e6134fd565b9050613a2a82826139e3565b919050565b600067ffffffffffffffff821115613a4a57613a496139b4565b5b613a53826135fa565b9050602081019050919050565b82818337600083830152505050565b6000613a82613a7d84613a2f565b613a14565b905082815260208101848484011115613a9e57613a9d6139af565b5b613aa9848285613a60565b509392505050565b600082601f830112613ac657613ac56139aa565b5b8135613ad6848260208601613a6f565b91505092915050565b600060208284031215613af557613af4613507565b5b600082013567ffffffffffffffff811115613b1357613b1261350c565b5b613b1f84828501613ab1565b91505092915050565b60008060408385031215613b3f57613b3e613507565b5b6000613b4d85828601613532565b925050602083013567ffffffffffffffff811115613b6e57613b6d61350c565b5b613b7a85828601613ab1565b9150509250929050565b600060a0820190508181036000830152613b9e818861360b565b90508181036020830152613bb2818761360b565b90508181036040830152613bc6818661360b565b9050613bd56060830185613685565b613be26080830184613644565b9695505050505050565b6000602082019050613c016000830184613685565b92915050565b600081519050919050565b600082825260208201905092915050565b6000819050602082019050919050565b600082825260208201905092915050565b6000613c4f826135b4565b613c598185613c33565b9350613c698185602086016135d0565b613c72816135fa565b840191505092915050565b600060a0830160008301518482036000860152613c9a8282613c44565b91505060208301518482036020860152613cb48282613c44565b91505060408301518482036040860152613cce8282613c44565b9150506060830151613ce36060860182613744565b506080830151613cf66080860182613802565b508091505092915050565b6000613d0d8383613c7d565b905092915050565b6000602082019050919050565b6000613d2d82613c07565b613d378185613c12565b935083602082028501613d4985613c23565b8060005b85811015613d855784840389528151613d668582613d01565b9450613d7183613d15565b925060208a01995050600181019050613d4d565b50829750879550505050505092915050565b60006020820190508181036000830152613db18184613d22565b905092915050565b6000602082019050613dce6000830184613644565b92915050565b613ddd81613673565b8114613de857600080fd5b50565b600081359050613dfa81613dd4565b92915050565b600060208284031215613e1657613e15613507565b5b6000613e2484828501613deb565b91505092915050565b613e36816138c0565b82525050565b600060c0820190508181036000830152613e56818961360b565b90508181036020830152613e6a818861360b565b90508181036040830152613e7e818761360b565b9050613e8d6060830186613e2d565b613e9a6080830185613644565b613ea760a0830184613e2d565b979650505050505050565b600080600060608486031215613ecb57613eca613507565b5b600084013567ffffffffffffffff811115613ee957613ee861350c565b5b613ef586828701613ab1565b935050602084013567ffffffffffffffff811115613f1657613f1561350c565b5b613f2286828701613ab1565b925050604084013567ffffffffffffffff811115613f4357613f4261350c565b5b613f4f86828701613ab1565b9150509250925092565b600067ffffffffffffffff821115613f7457613f736139b4565b5b602082029050602081019050919050565b600080fd5b6000613f9d613f9884613f59565b613a14565b90508083825260208201905060208402830185811115613fc057613fbf613f85565b5b835b81811015613fe95780613fd58882613532565b845260208401935050602081019050613fc2565b5050509392505050565b600082601f830112614008576140076139aa565b5b8135614018848260208601613f8a565b91505092915050565b600080600080600060a0868803121561403d5761403c613507565b5b600086013567ffffffffffffffff81111561405b5761405a61350c565b5b61406788828901613ab1565b955050602086013567ffffffffffffffff8111156140885761408761350c565b5b61409488828901613ab1565b94505060406140a588828901613532565b93505060606140b688828901613deb565b925050608086013567ffffffffffffffff8111156140d7576140d661350c565b5b6140e388828901613ff3565b9150509295509295909350565b600081519050919050565b600082825260208201905092915050565b6000819050602082019050919050565b600060c08301600083015184820360008601526141398282613c44565b915050602083015184820360208601526141538282613c44565b9150506040830151848203604086015261416d8282613c44565b915050606083015161418260608601826138cc565b5060808301516141956080860182613802565b5060a08301516141a860a08601826138cc565b508091505092915050565b60006141bf838361411c565b905092915050565b6000602082019050919050565b60006141df826140f0565b6141e981856140fb565b9350836020820285016141fb8561410c565b8060005b85811015614237578484038952815161421885826141b3565b9450614223836141c7565b925060208a019950506001810190506141ff565b50829750879550505050505092915050565b6000602082019050818103600083015261426381846141d4565b905092915050565b7f4f6e6c7920476f7665726e6d656e74204f6666696365722063616e207065726660008201527f6f726d207468697320616374696f6e2e00000000000000000000000000000000602082015250565b60006142c76030836135bf565b91506142d28261426b565b604082019050919050565b600060208201905081810360008301526142f6816142ba565b9050919050565b7f496e76616c69642070726f6a6563742049442e00000000000000000000000000600082015250565b60006143336013836135bf565b915061433e826142fd565b602082019050919050565b6000602082019050818103600083015261436281614326565b9050919050565b7f4e487b7100000000000000000000000000000000000000000000000000000000600052603260045260246000fd5b600081905092915050565b7f504c414e4e494e47000000000000000000000000000000000000000000000000600082015250565b60006143d9600883614398565b91506143e4826143a3565b600882019050919050565b60006143fa826143cc565b9150819050919050565b7f4e487b7100000000000000000000000000000000000000000000000000000000600052602260045260246000fd5b6000600282049050600182168061444b57607f821691505b60208210810361445e5761445d614404565b5b50919050565b60008190508160005260206000209050919050565b6000815461448681614433565b6144908186614398565b945060018216600081146144ab57600181146144c0576144f3565b60ff19831686528115158202860193506144f3565b6144c985614464565b60005b838110156144eb578154818901526001820191506020810190506144cc565b838801955050505b50505092915050565b60006145088284614479565b915081905092915050565b7f50726f6a656374206d75737420626520696e20706c616e6e696e67207374616760008201527f6500000000000000000000000000000000000000000000000000000000000000602082015250565b600061456f6021836135bf565b915061457a82614513565b604082019050919050565b6000602082019050818103600083015261459e81614562565b9050919050565b7f416d6f756e74206d7573742062652067726561746572207468616e2030000000600082015250565b60006145db601d836135bf565b91506145e6826145a5565b602082019050919050565b6000602082019050818103600083015261460a816145ce565b9050919050565b7f4e487b7100000000000000000000000000000000000000000000000000000000600052601160045260246000fd5b600061464b82613511565b915061465683613511565b925082820390508181111561466e5761466d614611565b5b92915050565b7f457863656564732072657175697265642066756e647300000000000000000000600082015250565b60006146aa6016836135bf565b91506146b582614674565b602082019050919050565b600060208201905081810360008301526146d98161469d565b9050919050565b7f496e73756666696369656e7420636f6e74726163742062616c616e6365000000600082015250565b6000614716601d836135bf565b9150614721826146e0565b602082019050919050565b6000602082019050818103600083015261474581614709565b9050919050565b600061475782613511565b915061476283613511565b925082820190508082111561477a57614779614611565b5b92915050565b60006020601f8301049050919050565b600082821b905092915050565b6000600883026147cd7fffffffffffffffffffffffffffffffffffffffffffffffffffffffffffffffff82614790565b6147d78683614790565b95508019841693508086168417925050509392505050565b6000819050919050565b600061481461480f61480a84613511565b6147ef565b613511565b9050919050565b6000819050919050565b61482e836147f9565b61484261483a8261481b565b84845461479d565b825550505050565b600090565b61485761484a565b614862818484614825565b505050565b5b818110156148865761487b60008261484f565b600181019050614868565b5050565b601f8211156148cb5761489c81614464565b6148a584614780565b810160208510156148b4578190505b6148c86148c085614780565b830182614867565b50505b505050565b600082821c905092915050565b60006148ee600019846008026148d0565b1980831691505092915050565b600061490783836148dd565b9150826002028217905092915050565b614920826135b4565b67ffffffffffffffff811115614939576149386139b4565b5b6149438254614433565b61494e82828561488a565b600060209050601f831160018114614981576000841561496f578287015190505b61497985826148fb565b8655506149e1565b601f19841661498f86614464565b60005b828110156149b757848901518255600182019150602085019450602081019050614992565b868310156149d457848901516149d0601f8916826148dd565b8355505b6001600288020188555050505b505050505050565b600081905092915050565b50565b6000614a046000836149e9565b9150614a0f826149f4565b600082019050919050565b6000614a25826149f7565b9150819050919050565b7f4661696c656420746f2073656e642045544820746f2070726f6a656374206d6160008201527f6e61676572000000000000000000000000000000000000000000000000000000602082015250565b6000614a8b6025836135bf565b9150614a9682614a2f565b604082019050919050565b60006020820190508181036000830152614aba81614a7e565b9050919050565b6000604082019050614ad66000830185613644565b614ae36020830184613644565b9392505050565b60008154614af781614433565b614b0181866135bf565b94506001821660008114614b1c5760018114614b3257614b65565b60ff198316865281151560200286019350614b65565b614b3b85614464565b60005b83811015614b5d57815481890152600182019150602081019050614b3e565b808801955050505b50505092915050565b6000604082019050614b836000830185613644565b8181036020830152614b958184614aea565b90509392505050565b7f4f6e6c792061646d696e2063616e20706572666f726d2074686973206163746960008201527f6f6e000000000000000000000000000000000000000000000000000000000000602082015250565b6000614bfa6022836135bf565b9150614c0582614b9e565b604082019050919050565b60006020820190508181036000830152614c2981614bed565b9050919050565b7f4f6e6c7920726567697374657265642075736572732063616e20706572666f7260008201527f6d207468697320616374696f6e2e000000000000000000000000000000000000602082015250565b6000614c8c602e836135bf565b9150614c9782614c30565b604082019050919050565b60006020820190508181036000830152614cbb81614c7f565b9050919050565b7f44657461696c732063616e6e6f7420626520656d7074792e0000000000000000600082015250565b6000614cf86018836135bf565b9150614d0382614cc2565b602082019050919050565b60006020820190508181036000830152614d2781614ceb565b9050919050565b7f496e73756666696369656e742062616c616e6365000000000000000000000000600082015250565b6000614d646014836135bf565b9150614d6f82614d2e565b602082019050919050565b60006020820190508181036000830152614d9381614d57565b9050919050565b7f4661696c656420746f2077697468647261772045544800000000000000000000600082015250565b6000614dd06016836135bf565b9150614ddb82614d9a565b602082019050919050565b60006020820190508181036000830152614dff81614dc3565b9050919050565b7f4f6e6c79204d756e69636970616c20486561642063616e20706572666f726d2060008201527f7468697320616374696f6e2e0000000000000000000000000000000000000000602082015250565b6000614e62602c836135bf565b9150614e6d82614e06565b604082019050919050565b60006020820190508181036000830152614e9181614e55565b9050919050565b7f496e76616c6964206772696576616e63652049442e0000000000000000000000600082015250565b6000614ece6015836135bf565b9150614ed982614e98565b602082019050919050565b60006020820190508181036000830152614efd81614ec1565b9050919050565b7f4143434550544544000000000000000000000000000000000000000000000000600082015250565b6000614f3a600883614398565b9150614f4582614f04565b600882019050919050565b6000614f5b82614f2d565b9150819050919050565b6000614f70826135b4565b614f7a8185614398565b9350614f8a8185602086016135d0565b80840191505092915050565b6000614fa28284614f65565b915081905092915050565b7f52454a4543544544000000000000000000000000000000000000000000000000600082015250565b6000614fe3600883614398565b9150614fee82614fad565b600882019050919050565b600061500482614fd6565b9150819050919050565b7f496e76616c696420737461747573000000000000000000000000000000000000600082015250565b6000615044600e836135bf565b915061504f8261500e565b602082019050919050565b6000602082019050818103600083015261507381615037565b9050919050565b600060408201905061508f6000830185613644565b81810360208301526150a1818461360b565b90509392505050565b7f4f4e474f494e4700000000000000000000000000000000000000000000000000600082015250565b60006150e0600783614398565b91506150eb826150aa565b600782019050919050565b6000615101826150d3565b9150819050919050565b7f50726f6a656374206d757374206265206f6e676f696e6720746f20636f6d706c60008201527f6574650000000000000000000000000000000000000000000000000000000000602082015250565b60006151676023836135bf565b91506151728261510b565b604082019050919050565b600060208201905081810360008301526151968161515a565b9050919050565b7f434f4d504c455445440000000000000000000000000000000000000000000000600082015250565b60006151d36009836135bf565b91506151de8261519d565b602082019050919050565b60006040820190506151fe6000830184613644565b818103602083015261520f816151c6565b905092915050565b7f496e636f72726563742074617820616d6f756e742e0000000000000000000000600082015250565b600061524d6015836135bf565b915061525882615217565b602082019050919050565b6000602082019050818103600083015261527c81615240565b9050919050565b7f54617820616c7265616479207061696420666f722063757272656e742070657260008201527f696f642e00000000000000000000000000000000000000000000000000000000602082015250565b60006152df6024836135bf565b91506152ea82615283565b604082019050919050565b6000602082019050818103600083015261530e816152d2565b9050919050565b600061532082613511565b91507fffffffffffffffffffffffffffffffffffffffffffffffffffffffffffffffff820361535257615351614611565b5b600182019050919050565b7f54617820616d6f756e74206d7573742062652067726561746572207468616e2060008201527f3000000000000000000000000000000000000000000000000000000000000000602082015250565b60006153b96021836135bf565b91506153c48261535d565b604082019050919050565b600060208201905081810360008301526153e8816153ac565b9050919050565b7f5573657220616c726561647920726567697374657265642e0000000000000000600082015250565b60006154256018836135bf565b9150615430826153ef565b602082019050919050565b6000602082019050818103600083015261545481615418565b9050919050565b7f4e616d652063616e6e6f7420626520656d7074792e0000000000000000000000600082015250565b60006154916015836135bf565b915061549c8261545b565b602082019050919050565b600060208201905081810360008301526154c081615484565b9050919050565b60006040820190506154dc6000830185613685565b81810360208301526154ee818461360b565b90509392505050565b7f50726f6a656374206e616d652063616e6e6f7420626520656d7074792e000000600082015250565b600061552d601d836135bf565b9150615538826154f7565b602082019050919050565b6000602082019050818103600083015261555c81615520565b9050919050565b7f496e76616c69642070726f6a656374206d616e6167657220616464726573732e600082015250565b60006155996020836135bf565b91506155a482615563565b602082019050919050565b600060208201905081810360008301526155c88161558c565b9050919050565b60006060820190506155e46000830186613644565b81810360208301526155f6818561360b565b90506156056040830184613644565b949350505050565b7f496e76616c696420616464726573730000000000000000000000000000000000600082015250565b6000615643600f836135bf565b915061564e8261560d565b602082019050919050565b6000602082019050818103600083015261567281615636565b905091905056fea264697066735822122063ed0fcd38b9b97807959d53aac596a5d387af84bd497a84712d6f1ee45549fd64736f6c634300081b0033",
  "linkReferences": {},
  "deployedLinkReferences": {}
}